{
  "_format": "hh3-artifact-1",
  "contractName": "Voter",
  "sourceName": "contracts/Voter.sol",
  "abi": [
    {
      "anonymous": false,
      "inputs": [
        {
          "indexed": false,
          "internalType": "uint256",
          "name": "pollId",
          "type": "uint256"
        },
        {
          "indexed": false,
          "internalType": "string",
          "name": "title",
          "type": "string"
        }
      ],
      "name": "PollCreated",
      "type": "event"
    },
    {
      "anonymous": false,
      "inputs": [
        {
          "indexed": false,
          "internalType": "uint256",
          "name": "pollId",
          "type": "uint256"
        },
        {
          "indexed": false,
          "internalType": "address",
          "name": "voter",
          "type": "address"
        },
        {
          "indexed": false,
          "internalType": "uint256",
          "name": "candidateId",
          "type": "uint256"
        }
      ],
      "name": "Voted",
      "type": "event"
    },
    {
      "inputs": [
        {
          "internalType": "uint256",
          "name": "pollId",
          "type": "uint256"
        }
      ],
      "name": "closePoll",
      "outputs": [],
      "stateMutability": "nonpayable",
      "type": "function"
    },
    {
      "inputs": [
        {
          "internalType": "string",
          "name": "title",
          "type": "string"
        },
        {
          "internalType": "string[]",
          "name": "candidateNames",
          "type": "string[]"
        }
      ],
      "name": "createPoll",
      "outputs": [],
      "stateMutability": "nonpayable",
      "type": "function"
    },
    {
      "inputs": [],
      "name": "getAllPolls",
      "outputs": [
        {
          "components": [
            {
              "internalType": "uint256",
              "name": "id",
              "type": "uint256"
            },
            {
              "internalType": "string",
              "name": "title",
              "type": "string"
            },
            {
              "internalType": "uint256",
              "name": "candidatesCount",
              "type": "uint256"
            },
            {
              "internalType": "bool",
              "name": "active",
              "type": "bool"
            }
          ],
          "internalType": "struct Voter.PollInfo[]",
          "name": "",
          "type": "tuple[]"
        }
      ],
      "stateMutability": "view",
      "type": "function"
    },
    {
      "inputs": [
        {
          "internalType": "uint256",
          "name": "pollId",
          "type": "uint256"
        },
        {
          "internalType": "uint256",
          "name": "candidateId",
          "type": "uint256"
        }
      ],
      "name": "getCandidate",
      "outputs": [
        {
          "internalType": "uint256",
          "name": "",
          "type": "uint256"
        },
        {
          "internalType": "string",
          "name": "",
          "type": "string"
        },
        {
          "internalType": "uint256",
          "name": "",
          "type": "uint256"
        }
      ],
      "stateMutability": "view",
      "type": "function"
    },
    {
      "inputs": [
        {
          "internalType": "uint256",
          "name": "pollId",
          "type": "uint256"
        }
      ],
      "name": "getCandidateCount",
      "outputs": [
        {
          "internalType": "uint256",
          "name": "",
          "type": "uint256"
        }
      ],
      "stateMutability": "view",
      "type": "function"
    },
    {
      "inputs": [
        {
          "internalType": "uint256",
          "name": "pollId",
          "type": "uint256"
        }
      ],
      "name": "getPollCandidates",
      "outputs": [
        {
          "components": [
            {
              "internalType": "uint256",
              "name": "id",
              "type": "uint256"
            },
            {
              "internalType": "string",
              "name": "name",
              "type": "string"
            },
            {
              "internalType": "uint256",
              "name": "voteCount",
              "type": "uint256"
            }
          ],
          "internalType": "struct Voter.Candidate[]",
          "name": "",
          "type": "tuple[]"
        }
      ],
      "stateMutability": "view",
      "type": "function"
    },
    {
      "inputs": [
        {
          "internalType": "uint256",
          "name": "",
          "type": "uint256"
        }
      ],
      "name": "polls",
      "outputs": [
        {
          "internalType": "uint256",
          "name": "id",
          "type": "uint256"
        },
        {
          "internalType": "string",
          "name": "title",
          "type": "string"
        },
        {
          "internalType": "uint256",
          "name": "candidatesCount",
          "type": "uint256"
        },
        {
          "internalType": "bool",
          "name": "active",
          "type": "bool"
        }
      ],
      "stateMutability": "view",
      "type": "function"
    },
    {
      "inputs": [],
      "name": "pollsCount",
      "outputs": [
        {
          "internalType": "uint256",
          "name": "",
          "type": "uint256"
        }
      ],
      "stateMutability": "view",
      "type": "function"
    },
    {
      "inputs": [
        {
          "internalType": "uint256",
          "name": "pollId",
          "type": "uint256"
        },
        {
          "internalType": "uint256",
          "name": "candidateId",
          "type": "uint256"
        }
      ],
      "name": "vote",
      "outputs": [],
      "stateMutability": "nonpayable",
      "type": "function"
    }
  ],
  "bytecode": "0x6080604052348015600e575f5ffd5b50610f4c8061001c5f395ff3fe608060405234801561000f575f5ffd5b5060043610610090575f3560e01c80634bd46448116100635780634bd46448146101075780637e3d71c3146101295780639534e6371461013e578063ac2f007414610166578063b384abef14610189575f5ffd5b8063179d760d1461009457806326f6a2aa146100b057806332b633fa146100d25780633d0a64e2146100e7575b5f5ffd5b61009d60015481565b6040519081526020015b60405180910390f35b61009d6100be3660046109a9565b5f9081526020819052604090206003015490565b6100da61019c565b6040516100a791906109ee565b6100fa6100f53660046109a9565b61032f565b6040516100a79190610a7e565b61011a610115366004610af7565b6104c6565b6040516100a793929190610b17565b61013c610137366004610b3f565b61060f565b005b61013c61014c3660046109a9565b5f908152602081905260409020600501805460ff19169055565b6101796101743660046109a9565b61076e565b6040516100a79493929190610c07565b61013c610197366004610af7565b610820565b60605f60015467ffffffffffffffff8111156101ba576101ba610c37565b60405190808252806020026020018201604052801561021557816020015b61020260405180608001604052805f8152602001606081526020015f81526020015f151581525090565b8152602001906001900390816101d85790505b50905060015b6001548111610329575f81815260208181526040918290208251608081019093528054835260018101805491939283019161025590610c4b565b80601f016020809104026020016040519081016040528092919081815260200182805461028190610c4b565b80156102cc5780601f106102a3576101008083540402835291602001916102cc565b820191905f5260205f20905b8154815290600101906020018083116102af57829003601f168201915b505050918352505060038301546020820152600583015460ff161515604090910152836102fa600185610c91565b8151811061030a5761030a610caa565b602002602001018190525050808061032190610cbe565b91505061021b565b50919050565b5f81815260208190526040812060038101546060929067ffffffffffffffff81111561035d5761035d610c37565b6040519080825280602002602001820160405280156103b057816020015b61039d60405180606001604052805f8152602001606081526020015f81525090565b81526020019060019003908161037b5790505b50905060015b826003015481116104be57826002015f8281526020019081526020015f206040518060600160405290815f82015481526020016001820180546103f890610c4b565b80601f016020809104026020016040519081016040528092919081815260200182805461042490610c4b565b801561046f5780601f106104465761010080835404028352916020019161046f565b820191905f5260205f20905b81548152906001019060200180831161045257829003601f168201915b50505050508152602001600282015481525050826001836104909190610c91565b815181106104a0576104a0610caa565b602002602001018190525080806104b690610cbe565b9150506103b6565b509392505050565b5f828152602081905260408120606090829084158015906104eb575080600301548511155b6105305760405162461bcd60e51b8152602060048201526011602482015270496e76616c69642063616e64696461746560781b60448201526064015b60405180910390fd5b5f816002015f8781526020019081526020015f206040518060600160405290815f820154815260200160018201805461056890610c4b565b80601f016020809104026020016040519081016040528092919081815260200182805461059490610c4b565b80156105df5780601f106105b6576101008083540402835291602001916105df565b820191905f5260205f20905b8154815290600101906020018083116105c257829003601f168201915b50505091835250506002919091015460209182015281519082015160409092015190999198509650945050505050565b60018054905f61061e83610cbe565b9091555050600180545f818152602081905260409020908155908101610645858783610d22565b5060058101805460ff191660011790555f5b8281101561072957600382018054905f61067083610cbe565b919050555060405180606001604052808360030154815260200185858481811061069c5761069c610caa565b90506020028101906106ae9190610ddc565b8080601f0160208091040260200160405190810160405280939291908181526020018383808284375f92018290525093855250505060209182018190526003850154815260028501825260409020825181559082015160018201906107139082610e26565b5060409190910151600290910155600101610657565b507f65d5ac2bf1bca69566bef1affdfca5bb37b9577fc0b3af4c7c4638225e67b39c600154868660405161075f93929190610ee1565b60405180910390a15050505050565b5f602081905290815260409020805460018201805491929161078f90610c4b565b80601f01602080910402602001604051908101604052809291908181526020018280546107bb90610c4b565b80156108065780601f106107dd57610100808354040283529160200191610806565b820191905f5260205f20905b8154815290600101906020018083116107e957829003601f168201915b50505050600383015460059093015491929160ff16905084565b5f828152602081905260409020600581015460ff166108735760405162461bcd60e51b815260206004820152600f60248201526e506f6c6c206e6f742061637469766560881b6044820152606401610527565b335f90815260048201602052604090205460ff16156108d45760405162461bcd60e51b815260206004820152601a60248201527f416c726561647920766f74656420696e207468697320506f6c6c0000000000006044820152606401610527565b5f821180156108e7575080600301548211155b6109275760405162461bcd60e51b8152602060048201526011602482015270496e76616c69642043616e64696461746560781b6044820152606401610527565b335f9081526004820160209081526040808320805460ff19166001179055848352600280850190925282200180549161095f83610cbe565b9091555050604080518481523360208201529081018390527f1abe610cf2bf87e57dcc1181fcf5ac0934e843d8344ab9eed6e86c799f62585e9060600160405180910390a1505050565b5f602082840312156109b9575f5ffd5b5035919050565b5f81518084528060208401602086015e5f602082860101526020601f19601f83011685010191505092915050565b5f602082016020835280845180835260408501915060408160051b8601019250602086015f5b82811015610a7257603f19878603018452815180518652602081015160806020880152610a4460808801826109c0565b6040838101519089015260609283015115159290970191909152506020938401939190910190600101610a14565b50929695505050505050565b5f602082016020835280845180835260408501915060408160051b8601019250602086015f5b82811015610a7257603f19878603018452815180518652602081015160606020880152610ad460608801826109c0565b604092830151979092019690965294506020938401939190910190600101610aa4565b5f5f60408385031215610b08575f5ffd5b50508035926020909101359150565b838152606060208201525f610b2f60608301856109c0565b9050826040830152949350505050565b5f5f5f5f60408587031215610b52575f5ffd5b843567ffffffffffffffff811115610b68575f5ffd5b8501601f81018713610b78575f5ffd5b803567ffffffffffffffff811115610b8e575f5ffd5b876020828401011115610b9f575f5ffd5b60209182019550935085013567ffffffffffffffff811115610bbf575f5ffd5b8501601f81018713610bcf575f5ffd5b803567ffffffffffffffff811115610be5575f5ffd5b8760208260051b8401011115610bf9575f5ffd5b949793965060200194505050565b848152608060208201525f610c1f60808301866109c0565b60408301949094525090151560609091015292915050565b634e487b7160e01b5f52604160045260245ffd5b600181811c90821680610c5f57607f821691505b60208210810361032957634e487b7160e01b5f52602260045260245ffd5b634e487b7160e01b5f52601160045260245ffd5b81810381811115610ca457610ca4610c7d565b92915050565b634e487b7160e01b5f52603260045260245ffd5b5f60018201610ccf57610ccf610c7d565b5060010190565b601f821115610d1d57805f5260205f20601f840160051c81016020851015610cfb5750805b601f840160051c820191505b81811015610d1a575f8155600101610d07565b50505b505050565b67ffffffffffffffff831115610d3a57610d3a610c37565b610d4e83610d488354610c4b565b83610cd6565b5f601f841160018114610d7f575f8515610d685750838201355b5f19600387901b1c1916600186901b178355610d1a565b5f83815260208120601f198716915b82811015610dae5786850135825560209485019460019092019101610d8e565b5086821015610dca575f1960f88860031b161c19848701351681555b505060018560011b0183555050505050565b5f5f8335601e19843603018112610df1575f5ffd5b83018035915067ffffffffffffffff821115610e0b575f5ffd5b602001915036819003821315610e1f575f5ffd5b9250929050565b815167ffffffffffffffff811115610e4057610e40610c37565b610e5481610e4e8454610c4b565b84610cd6565b6020601f821160018114610e86575f8315610e6f5750848201515b5f19600385901b1c1916600184901b178455610d1a565b5f84815260208120601f198516915b82811015610eb55787850151825560209485019460019092019101610e95565b5084821015610ed257868401515f19600387901b60f8161c191681555b50505050600190811b01905550565b83815260406020820152816040820152818360608301375f818301606090810191909152601f909201601f191601019291505056fea2646970667358221220ccd81ab4c6f4bf6797c6bd2a1b82cc7c7338ae16cdb265390b08245fc920ffd564736f6c634300081c0033",
  "linkReferences": {},
  "deployedLinkReferences": {},
  "immutableReferences": {},
  "inputSourceName": "project/contracts/Voter.sol",
  "buildInfoId": "solc-0_8_28-5e3db96b797aed2de12cae89fe0b8ce05e42273a"
}