{
  "_format": "hh3-artifact-1",
  "contractName": "Voter",
  "sourceName": "contracts/Voter.sol",
  "abi": [
    {
      "anonymous": false,
      "inputs": [
        {
          "indexed": false,
          "internalType": "uint256",
          "name": "pollId",
          "type": "uint256"
        },
        {
          "indexed": false,
          "internalType": "string",
          "name": "title",
          "type": "string"
        }
      ],
      "name": "PollCreated",
      "type": "event"
    },
    {
      "anonymous": false,
      "inputs": [
        {
          "indexed": false,
          "internalType": "uint256",
          "name": "pollId",
          "type": "uint256"
        },
        {
          "indexed": false,
          "internalType": "address",
          "name": "voter",
          "type": "address"
        },
        {
          "indexed": false,
          "internalType": "uint256",
          "name": "candidateId",
          "type": "uint256"
        }
      ],
      "name": "Voted",
      "type": "event"
    },
    {
      "inputs": [
        {
          "internalType": "uint256",
          "name": "pollId",
          "type": "uint256"
        }
      ],
      "name": "closePoll",
      "outputs": [],
      "stateMutability": "nonpayable",
      "type": "function"
    },
    {
      "inputs": [
        {
          "internalType": "string",
          "name": "title",
          "type": "string"
        },
        {
          "internalType": "string[]",
          "name": "candidateNames",
          "type": "string[]"
        }
      ],
      "name": "createPoll",
      "outputs": [],
      "stateMutability": "nonpayable",
      "type": "function"
    },
    {
      "inputs": [
        {
          "internalType": "uint256",
          "name": "pollId",
          "type": "uint256"
        },
        {
          "internalType": "uint256",
          "name": "candidateId",
          "type": "uint256"
        }
      ],
      "name": "getCandidate",
      "outputs": [
        {
          "internalType": "uint256",
          "name": "",
          "type": "uint256"
        },
        {
          "internalType": "string",
          "name": "",
          "type": "string"
        },
        {
          "internalType": "uint256",
          "name": "",
          "type": "uint256"
        }
      ],
      "stateMutability": "view",
      "type": "function"
    },
    {
      "inputs": [
        {
          "internalType": "uint256",
          "name": "pollId",
          "type": "uint256"
        }
      ],
      "name": "getCandidateCount",
      "outputs": [
        {
          "internalType": "uint256",
          "name": "",
          "type": "uint256"
        }
      ],
      "stateMutability": "view",
      "type": "function"
    },
    {
      "inputs": [
        {
          "internalType": "uint256",
          "name": "pollId",
          "type": "uint256"
        }
      ],
      "name": "getPollCandidates",
      "outputs": [
        {
          "components": [
            {
              "internalType": "uint256",
              "name": "id",
              "type": "uint256"
            },
            {
              "internalType": "string",
              "name": "name",
              "type": "string"
            },
            {
              "internalType": "uint256",
              "name": "voteCount",
              "type": "uint256"
            }
          ],
          "internalType": "struct Voter.Candidate[]",
          "name": "",
          "type": "tuple[]"
        }
      ],
      "stateMutability": "view",
      "type": "function"
    },
    {
      "inputs": [
        {
          "internalType": "uint256",
          "name": "",
          "type": "uint256"
        }
      ],
      "name": "polls",
      "outputs": [
        {
          "internalType": "uint256",
          "name": "id",
          "type": "uint256"
        },
        {
          "internalType": "string",
          "name": "title",
          "type": "string"
        },
        {
          "internalType": "uint256",
          "name": "candidatesCount",
          "type": "uint256"
        },
        {
          "internalType": "bool",
          "name": "active",
          "type": "bool"
        }
      ],
      "stateMutability": "view",
      "type": "function"
    },
    {
      "inputs": [],
      "name": "pollsCount",
      "outputs": [
        {
          "internalType": "uint256",
          "name": "",
          "type": "uint256"
        }
      ],
      "stateMutability": "view",
      "type": "function"
    },
    {
      "inputs": [
        {
          "internalType": "uint256",
          "name": "pollId",
          "type": "uint256"
        },
        {
          "internalType": "uint256",
          "name": "candidateId",
          "type": "uint256"
        }
      ],
      "name": "vote",
      "outputs": [],
      "stateMutability": "nonpayable",
      "type": "function"
    }
  ],
  "bytecode": "0x6080604052348015600e575f5ffd5b50610d1b8061001c5f395ff3fe608060405234801561000f575f5ffd5b5060043610610085575f3560e01c80637e3d71c3116100585780637e3d71c3146101095780639534e6371461011e578063ac2f007414610146578063b384abef14610169575f5ffd5b8063179d760d1461008957806326f6a2aa146100a55780633d0a64e2146100c75780634bd46448146100e7575b5f5ffd5b61009260015481565b6040519081526020015b60405180910390f35b6100926100b33660046107f6565b5f9081526020819052604090206003015490565b6100da6100d53660046107f6565b61017c565b60405161009c919061083b565b6100fa6100f53660046108c0565b610313565b60405161009c939291906108e0565b61011c610117366004610908565b61045c565b005b61011c61012c3660046107f6565b5f908152602081905260409020600501805460ff19169055565b6101596101543660046107f6565b6105bb565b60405161009c94939291906109d0565b61011c6101773660046108c0565b61066d565b5f81815260208190526040812060038101546060929067ffffffffffffffff8111156101aa576101aa610a00565b6040519080825280602002602001820160405280156101fd57816020015b6101ea60405180606001604052805f8152602001606081526020015f81525090565b8152602001906001900390816101c85790505b50905060015b8260030154811161030b57826002015f8281526020019081526020015f206040518060600160405290815f820154815260200160018201805461024590610a14565b80601f016020809104026020016040519081016040528092919081815260200182805461027190610a14565b80156102bc5780601f10610293576101008083540402835291602001916102bc565b820191905f5260205f20905b81548152906001019060200180831161029f57829003601f168201915b50505050508152602001600282015481525050826001836102dd9190610a60565b815181106102ed576102ed610a79565b6020026020010181905250808061030390610a8d565b915050610203565b509392505050565b5f82815260208190526040812060609082908415801590610338575080600301548511155b61037d5760405162461bcd60e51b8152602060048201526011602482015270496e76616c69642063616e64696461746560781b60448201526064015b60405180910390fd5b5f816002015f8781526020019081526020015f206040518060600160405290815f82015481526020016001820180546103b590610a14565b80601f01602080910402602001604051908101604052809291908181526020018280546103e190610a14565b801561042c5780601f106104035761010080835404028352916020019161042c565b820191905f5260205f20905b81548152906001019060200180831161040f57829003601f168201915b50505091835250506002919091015460209182015281519082015160409092015190999198509650945050505050565b60018054905f61046b83610a8d565b9091555050600180545f818152602081905260409020908155908101610492858783610af1565b5060058101805460ff191660011790555f5b8281101561057657600382018054905f6104bd83610a8d565b91905055506040518060600160405280836003015481526020018585848181106104e9576104e9610a79565b90506020028101906104fb9190610bab565b8080601f0160208091040260200160405190810160405280939291908181526020018383808284375f92018290525093855250505060209182018190526003850154815260028501825260409020825181559082015160018201906105609082610bf5565b50604091909101516002909101556001016104a4565b507f65d5ac2bf1bca69566bef1affdfca5bb37b9577fc0b3af4c7c4638225e67b39c60015486866040516105ac93929190610cb0565b60405180910390a15050505050565b5f60208190529081526040902080546001820180549192916105dc90610a14565b80601f016020809104026020016040519081016040528092919081815260200182805461060890610a14565b80156106535780601f1061062a57610100808354040283529160200191610653565b820191905f5260205f20905b81548152906001019060200180831161063657829003601f168201915b50505050600383015460059093015491929160ff16905084565b5f828152602081905260409020600581015460ff166106c05760405162461bcd60e51b815260206004820152600f60248201526e506f6c6c206e6f742061637469766560881b6044820152606401610374565b335f90815260048201602052604090205460ff16156107215760405162461bcd60e51b815260206004820152601a60248201527f416c726561647920766f74656420696e207468697320506f6c6c0000000000006044820152606401610374565b5f82118015610734575080600301548211155b6107745760405162461bcd60e51b8152602060048201526011602482015270496e76616c69642043616e64696461746560781b6044820152606401610374565b335f9081526004820160209081526040808320805460ff1916600117905584835260028085019092528220018054916107ac83610a8d565b9091555050604080518481523360208201529081018390527f1abe610cf2bf87e57dcc1181fcf5ac0934e843d8344ab9eed6e86c799f62585e9060600160405180910390a1505050565b5f60208284031215610806575f5ffd5b5035919050565b5f81518084528060208401602086015e5f602082860101526020601f19601f83011685010191505092915050565b5f602082016020835280845180835260408501915060408160051b8601019250602086015f5b828110156108b457603f19878603018452815180518652602081015160606020880152610891606088018261080d565b604092830151979092019690965294506020938401939190910190600101610861565b50929695505050505050565b5f5f604083850312156108d1575f5ffd5b50508035926020909101359150565b838152606060208201525f6108f8606083018561080d565b9050826040830152949350505050565b5f5f5f5f6040858703121561091b575f5ffd5b843567ffffffffffffffff811115610931575f5ffd5b8501601f81018713610941575f5ffd5b803567ffffffffffffffff811115610957575f5ffd5b876020828401011115610968575f5ffd5b60209182019550935085013567ffffffffffffffff811115610988575f5ffd5b8501601f81018713610998575f5ffd5b803567ffffffffffffffff8111156109ae575f5ffd5b8760208260051b84010111156109c2575f5ffd5b949793965060200194505050565b848152608060208201525f6109e8608083018661080d565b60408301949094525090151560609091015292915050565b634e487b7160e01b5f52604160045260245ffd5b600181811c90821680610a2857607f821691505b602082108103610a4657634e487b7160e01b5f52602260045260245ffd5b50919050565b634e487b7160e01b5f52601160045260245ffd5b81810381811115610a7357610a73610a4c565b92915050565b634e487b7160e01b5f52603260045260245ffd5b5f60018201610a9e57610a9e610a4c565b5060010190565b601f821115610aec57805f5260205f20601f840160051c81016020851015610aca5750805b601f840160051c820191505b81811015610ae9575f8155600101610ad6565b50505b505050565b67ffffffffffffffff831115610b0957610b09610a00565b610b1d83610b178354610a14565b83610aa5565b5f601f841160018114610b4e575f8515610b375750838201355b5f19600387901b1c1916600186901b178355610ae9565b5f83815260208120601f198716915b82811015610b7d5786850135825560209485019460019092019101610b5d565b5086821015610b99575f1960f88860031b161c19848701351681555b505060018560011b0183555050505050565b5f5f8335601e19843603018112610bc0575f5ffd5b83018035915067ffffffffffffffff821115610bda575f5ffd5b602001915036819003821315610bee575f5ffd5b9250929050565b815167ffffffffffffffff811115610c0f57610c0f610a00565b610c2381610c1d8454610a14565b84610aa5565b6020601f821160018114610c55575f8315610c3e5750848201515b5f19600385901b1c1916600184901b178455610ae9565b5f84815260208120601f198516915b82811015610c845787850151825560209485019460019092019101610c64565b5084821015610ca157868401515f19600387901b60f8161c191681555b50505050600190811b01905550565b83815260406020820152816040820152818360608301375f818301606090810191909152601f909201601f191601019291505056fea26469706673582212203ea69faf8dc326f66f11eb68651fa6b45ac8f07a8b7680d68212552aba69ca7d64736f6c634300081c0033",
  "linkReferences": {},
  "deployedLinkReferences": {},
  "immutableReferences": {},
  "inputSourceName": "project/contracts/Voter.sol",
  "buildInfoId": "solc-0_8_28-70b197c837bc0740a732a76eb42fab76dd9e5578"
}